{
  "address": "0xe7f1725E7734CE288F8367e1Bb143E90bb3F0512",
  "abi": [
    {
      "inputs": [
        {
          "internalType": "address",
          "name": "priceFeedAddress",
          "type": "address"
        }
      ],
      "stateMutability": "nonpayable",
      "type": "constructor"
    },
    {
      "inputs": [],
      "name": "FundMe__NotOwner",
      "type": "error"
    },
    {
      "stateMutability": "payable",
      "type": "fallback"
    },
    {
      "inputs": [],
      "name": "MINIMUM_USD",
      "outputs": [
        {
          "internalType": "uint256",
          "name": "",
          "type": "uint256"
        }
      ],
      "stateMutability": "view",
      "type": "function"
    },
    {
      "inputs": [],
      "name": "cheaperWithdraw",
      "outputs": [],
      "stateMutability": "nonpayable",
      "type": "function"
    },
    {
      "inputs": [],
      "name": "fund",
      "outputs": [],
      "stateMutability": "payable",
      "type": "function"
    },
    {
      "inputs": [
        {
          "internalType": "address",
          "name": "addr",
          "type": "address"
        }
      ],
      "name": "getAddressToAmountFunded",
      "outputs": [
        {
          "internalType": "uint256",
          "name": "",
          "type": "uint256"
        }
      ],
      "stateMutability": "view",
      "type": "function"
    },
    {
      "inputs": [
        {
          "internalType": "uint256",
          "name": "index",
          "type": "uint256"
        }
      ],
      "name": "getFunder",
      "outputs": [
        {
          "internalType": "address",
          "name": "",
          "type": "address"
        }
      ],
      "stateMutability": "view",
      "type": "function"
    },
    {
      "inputs": [],
      "name": "getOwner",
      "outputs": [
        {
          "internalType": "address",
          "name": "",
          "type": "address"
        }
      ],
      "stateMutability": "view",
      "type": "function"
    },
    {
      "inputs": [],
      "name": "getPriceFeed",
      "outputs": [
        {
          "internalType": "contract AggregatorV3Interface",
          "name": "",
          "type": "address"
        }
      ],
      "stateMutability": "view",
      "type": "function"
    },
    {
      "inputs": [],
      "name": "getVersion",
      "outputs": [
        {
          "internalType": "uint256",
          "name": "",
          "type": "uint256"
        }
      ],
      "stateMutability": "view",
      "type": "function"
    },
    {
      "inputs": [],
      "name": "withdraw",
      "outputs": [],
      "stateMutability": "nonpayable",
      "type": "function"
    },
    {
      "stateMutability": "payable",
      "type": "receive"
    }
  ],
  "transactionHash": "0x2c14811695c5c5bc88518cde32944a316ac3a2fbfa52f8a20c5106633e9252e2",
  "args": [
    "0x5FbDB2315678afecb367f032d93F642f64180aa3"
  ],
  "numDeployments": 1,
  "solcInputHash": "7f0790bd8d375de6e917f268b519effc",
  "bytecode": "0x60a06040523480156200001157600080fd5b506040516200140f3803806200140f833981810160405281019062000037919062000120565b3373ffffffffffffffffffffffffffffffffffffffff1660808173ffffffffffffffffffffffffffffffffffffffff1660601b8152505080600260006101000a81548173ffffffffffffffffffffffffffffffffffffffff021916908373ffffffffffffffffffffffffffffffffffffffff1602179055505062000152565b600080fd5b600073ffffffffffffffffffffffffffffffffffffffff82169050919050565b6000620000e882620000bb565b9050919050565b620000fa81620000db565b81146200010657600080fd5b50565b6000815190506200011a81620000ef565b92915050565b600060208284031215620001395762000138620000b6565b5b6000620001498482850162000109565b91505092915050565b60805160601c6112906200017f6000396000818161042c0152818161067b01526106cb01526112906000f3fe60806040526004361061008a5760003560e01c8063893d20e811610059578063893d20e81461014d5780639e87a5cd14610178578063b60d4288146101a3578063be2693f0146101ad578063d7b4750c146101c457610099565b80630343fb25146100a35780630d8e6e2c146100e05780633ccfd60b1461010b5780636b69a5921461012257610099565b3661009957610097610201565b005b6100a1610201565b005b3480156100af57600080fd5b506100ca60048036038101906100c59190610b9b565b61033b565b6040516100d79190610be1565b60405180910390f35b3480156100ec57600080fd5b506100f5610383565b6040516101029190610be1565b60405180910390f35b34801561011757600080fd5b5061012061042a565b005b34801561012e57600080fd5b5061013761066a565b6040516101449190610be1565b60405180910390f35b34801561015957600080fd5b50610162610677565b60405161016f9190610c0b565b60405180910390f35b34801561018457600080fd5b5061018d61069f565b60405161019a9190610c85565b60405180910390f35b6101ab610201565b005b3480156101b957600080fd5b506101c26106c9565b005b3480156101d057600080fd5b506101eb60048036038101906101e69190610ccc565b61096d565b6040516101f89190610c0b565b60405180910390f35b6802b5e3af16b1880000610240600260009054906101000a900473ffffffffffffffffffffffffffffffffffffffff16346109b590919063ffffffff16565b1015610281576040517f08c379a000000000000000000000000000000000000000000000000000000000815260040161027890610d56565b60405180910390fd5b346000803373ffffffffffffffffffffffffffffffffffffffff1673ffffffffffffffffffffffffffffffffffffffff16815260200190815260200160002060008282546102cf9190610da5565b925050819055506001339080600181540180825580915050600190039060005260206000200160009091909190916101000a81548173ffffffffffffffffffffffffffffffffffffffff021916908373ffffffffffffffffffffffffffffffffffffffff160217905550565b60008060008373ffffffffffffffffffffffffffffffffffffffff1673ffffffffffffffffffffffffffffffffffffffff168152602001908152602001600020549050919050565b6000600260009054906101000a900473ffffffffffffffffffffffffffffffffffffffff1673ffffffffffffffffffffffffffffffffffffffff166354fd4d506040518163ffffffff1660e01b815260040160206040518083038186803b1580156103ed57600080fd5b505afa158015610401573d6000803e3d6000fd5b505050506040513d601f19601f820116820180604052508101906104259190610e10565b905090565b7f000000000000000000000000000000000000000000000000000000000000000073ffffffffffffffffffffffffffffffffffffffff163373ffffffffffffffffffffffffffffffffffffffff16146104af576040517f579610db00000000000000000000000000000000000000000000000000000000815260040160405180910390fd5b60005b60018054905081101561055a576000600182815481106104d5576104d4610e3d565b5b9060005260206000200160009054906101000a900473ffffffffffffffffffffffffffffffffffffffff16905060008060008373ffffffffffffffffffffffffffffffffffffffff1673ffffffffffffffffffffffffffffffffffffffff1681526020019081526020016000208190555050808061055290610e6c565b9150506104b2565b50600067ffffffffffffffff81111561057657610575610eb5565b5b6040519080825280602002602001820160405280156105a45781602001602082028036833780820191505090505b50600190805190602001906105ba929190610a91565b5060003373ffffffffffffffffffffffffffffffffffffffff16476040516105e190610f15565b60006040518083038185875af1925050503d806000811461061e576040519150601f19603f3d011682016040523d82523d6000602084013e610623565b606091505b5050905080610667576040517f08c379a000000000000000000000000000000000000000000000000000000000815260040161065e90610f76565b60405180910390fd5b50565b6802b5e3af16b188000081565b60007f0000000000000000000000000000000000000000000000000000000000000000905090565b6000600260009054906101000a900473ffffffffffffffffffffffffffffffffffffffff16905090565b7f000000000000000000000000000000000000000000000000000000000000000073ffffffffffffffffffffffffffffffffffffffff163373ffffffffffffffffffffffffffffffffffffffff161461074e576040517f579610db00000000000000000000000000000000000000000000000000000000815260040160405180910390fd5b600060018054806020026020016040519081016040528092919081815260200182805480156107d257602002820191906000526020600020905b8160009054906101000a900473ffffffffffffffffffffffffffffffffffffffff1673ffffffffffffffffffffffffffffffffffffffff1681526020019060010190808311610788575b5050505050905060005b815181101561085c5760008282815181106107fa576107f9610e3d565b5b6020026020010151905060008060008373ffffffffffffffffffffffffffffffffffffffff1673ffffffffffffffffffffffffffffffffffffffff1681526020019081526020016000208190555050808061085490610e6c565b9150506107dc565b50600067ffffffffffffffff81111561087857610877610eb5565b5b6040519080825280602002602001820160405280156108a65781602001602082028036833780820191505090505b50600190805190602001906108bc929190610a91565b5060003373ffffffffffffffffffffffffffffffffffffffff16476040516108e390610f15565b60006040518083038185875af1925050503d8060008114610920576040519150601f19603f3d011682016040523d82523d6000602084013e610925565b606091505b5050905080610969576040517f08c379a000000000000000000000000000000000000000000000000000000000815260040161096090610f76565b60405180910390fd5b5050565b60006001828154811061098357610982610e3d565b5b9060005260206000200160009054906101000a900473ffffffffffffffffffffffffffffffffffffffff169050919050565b6000806109c1836109f1565b90506000670de0b6b3a764000085836109da9190610f96565b6109e4919061101f565b9050809250505092915050565b6000808273ffffffffffffffffffffffffffffffffffffffff1663feaf968c6040518163ffffffff1660e01b815260040160a06040518083038186803b158015610a3a57600080fd5b505afa158015610a4e573d6000803e3d6000fd5b505050506040513d601f19601f82011682018060405250810190610a7291906110c8565b5050509150506402540be40081610a899190611143565b915050919050565b828054828255906000526020600020908101928215610b0a579160200282015b82811115610b095782518260006101000a81548173ffffffffffffffffffffffffffffffffffffffff021916908373ffffffffffffffffffffffffffffffffffffffff16021790555091602001919060010190610ab1565b5b509050610b179190610b1b565b5090565b5b80821115610b34576000816000905550600101610b1c565b5090565b600080fd5b600073ffffffffffffffffffffffffffffffffffffffff82169050919050565b6000610b6882610b3d565b9050919050565b610b7881610b5d565b8114610b8357600080fd5b50565b600081359050610b9581610b6f565b92915050565b600060208284031215610bb157610bb0610b38565b5b6000610bbf84828501610b86565b91505092915050565b6000819050919050565b610bdb81610bc8565b82525050565b6000602082019050610bf66000830184610bd2565b92915050565b610c0581610b5d565b82525050565b6000602082019050610c206000830184610bfc565b92915050565b6000819050919050565b6000610c4b610c46610c4184610b3d565b610c26565b610b3d565b9050919050565b6000610c5d82610c30565b9050919050565b6000610c6f82610c52565b9050919050565b610c7f81610c64565b82525050565b6000602082019050610c9a6000830184610c76565b92915050565b610ca981610bc8565b8114610cb457600080fd5b50565b600081359050610cc681610ca0565b92915050565b600060208284031215610ce257610ce1610b38565b5b6000610cf084828501610cb7565b91505092915050565b600082825260208201905092915050565b7f596f75206e65656420746f207370656e64206d6f726520455448210000000000600082015250565b6000610d40601b83610cf9565b9150610d4b82610d0a565b602082019050919050565b60006020820190508181036000830152610d6f81610d33565b9050919050565b7f4e487b7100000000000000000000000000000000000000000000000000000000600052601160045260246000fd5b6000610db082610bc8565b9150610dbb83610bc8565b9250827fffffffffffffffffffffffffffffffffffffffffffffffffffffffffffffffff03821115610df057610def610d76565b5b828201905092915050565b600081519050610e0a81610ca0565b92915050565b600060208284031215610e2657610e25610b38565b5b6000610e3484828501610dfb565b91505092915050565b7f4e487b7100000000000000000000000000000000000000000000000000000000600052603260045260246000fd5b6000610e7782610bc8565b91507fffffffffffffffffffffffffffffffffffffffffffffffffffffffffffffffff821415610eaa57610ea9610d76565b5b600182019050919050565b7f4e487b7100000000000000000000000000000000000000000000000000000000600052604160045260246000fd5b600081905092915050565b50565b6000610eff600083610ee4565b9150610f0a82610eef565b600082019050919050565b6000610f2082610ef2565b9150819050919050565b7f43616c6c206661696c6564000000000000000000000000000000000000000000600082015250565b6000610f60600b83610cf9565b9150610f6b82610f2a565b602082019050919050565b60006020820190508181036000830152610f8f81610f53565b9050919050565b6000610fa182610bc8565b9150610fac83610bc8565b9250817fffffffffffffffffffffffffffffffffffffffffffffffffffffffffffffffff0483118215151615610fe557610fe4610d76565b5b828202905092915050565b7f4e487b7100000000000000000000000000000000000000000000000000000000600052601260045260246000fd5b600061102a82610bc8565b915061103583610bc8565b92508261104557611044610ff0565b5b828204905092915050565b600069ffffffffffffffffffff82169050919050565b61106f81611050565b811461107a57600080fd5b50565b60008151905061108c81611066565b92915050565b6000819050919050565b6110a581611092565b81146110b057600080fd5b50565b6000815190506110c28161109c565b92915050565b600080600080600060a086880312156110e4576110e3610b38565b5b60006110f28882890161107d565b9550506020611103888289016110b3565b945050604061111488828901610dfb565b935050606061112588828901610dfb565b92505060806111368882890161107d565b9150509295509295909350565b600061114e82611092565b915061115983611092565b9250827f7fffffffffffffffffffffffffffffffffffffffffffffffffffffffffffffff048211600084136000841316161561119857611197610d76565b5b817f800000000000000000000000000000000000000000000000000000000000000005831260008412600084131616156111d5576111d4610d76565b5b827f8000000000000000000000000000000000000000000000000000000000000000058212600084136000841216161561121257611211610d76565b5b827f7fffffffffffffffffffffffffffffffffffffffffffffffffffffffffffffff058212600084126000841216161561124f5761124e610d76565b5b82820290509291505056fea26469706673582212206b4d769255b10a0e33f56170cf2b8b6454dc573e6130e92913e9dbd712fcda0164736f6c63430008080033",
  "devdoc": {
    "kind": "dev",
    "methods": {},
    "version": 1
  },
  "userdoc": {
    "kind": "user",
    "methods": {},
    "version": 1
  },
  "storageLayout": {
    "storage": [
      {
        "astId": 58,
        "contract": "contracts/FundMe.sol:FundMe",
        "label": "s_addressToAmountFunded",
        "offset": 0,
        "slot": "0",
        "type": "t_mapping(t_address,t_uint256)"
      },
      {
        "astId": 61,
        "contract": "contracts/FundMe.sol:FundMe",
        "label": "s_funders",
        "offset": 0,
        "slot": "1",
        "type": "t_array(t_address)dyn_storage"
      },
      {
        "astId": 73,
        "contract": "contracts/FundMe.sol:FundMe",
        "label": "s_priceFeed",
        "offset": 0,
        "slot": "2",
        "type": "t_contract(AggregatorV3Interface)45"
      }
    ],
    "types": {
      "t_address": {
        "encoding": "inplace",
        "label": "address",
        "numberOfBytes": "20"
      },
      "t_array(t_address)dyn_storage": {
        "base": "t_address",
        "encoding": "dynamic_array",
        "label": "address[]",
        "numberOfBytes": "32"
      },
      "t_contract(AggregatorV3Interface)45": {
        "encoding": "inplace",
        "label": "contract AggregatorV3Interface",
        "numberOfBytes": "20"
      },
      "t_mapping(t_address,t_uint256)": {
        "encoding": "mapping",
        "key": "t_address",
        "label": "mapping(address => uint256)",
        "numberOfBytes": "32",
        "value": "t_uint256"
      },
      "t_uint256": {
        "encoding": "inplace",
        "label": "uint256",
        "numberOfBytes": "32"
      }
    }
  }
}